:100000000C942A000C94B8050C9447000C944700FB
:100010000C9447000C9447000C9447000C94470044
:100020000C9447000C9447000C9447000C94470034
:100030000C9447000C94B2020C9447000C942D02CF
:100040000C9447000C9447000C9447000C94470014
:100050000C94470011241FBECFE5D8E0DEBFCDBF12
:1000600011E0A0E6B0E0E0E5F4E102C005900D92F9
:10007000AA3FB107D9F722E0AAEFB1E001C01D9273
:10008000A533B207E1F70E9461000C94260A0C9494
:100090000000813411F481E0089580E008958535F1
:1000A00011F481E0089580E008958F3211F481E029
:1000B000089580E008958B3411F481E0089580E084
:1000C0000895EF92FF920F931F93CF93DF93C0E0B9
:1000D000D0E02BC0CE010E94BB099E01295E3D4F9E
:1000E0007901F9018083CE0105960E94BB098E013A
:1000F0000A5D1D4FF8018083CE010A960E94BB095C
:10010000F7018583CE010F960E94BB09F801858314
:10011000CE0144960E94BB09F7018287CE01499621
:100120000E94BB09F80182872196C530D10594F25F
:100130000E9409090E94EC050E94B7070E9433063D
:100140000E9425060E94D1068FE39CE90197F1F7F2
:1001500000C000008BEB90E00E9443070E9448061D
:100160000E9406068091FD01813009F45FC180E0A4
:100170000E94BA078093FA018D3118F00E941B0685
:1001800004C0853110F40E94200688E00E945606C3
:10019000811115C08CE00E945606811110C08DE0BF
:1001A0000E94560681110BC08EE00E9456068111F6
:1001B00006C08FE00E945606882309F494C08091FF
:1001C000FF019091000205970CF08DC080916000B6
:1001D000882321F00E946707109260008091FB0144
:1001E000813009F072C060E080E00E9456078DED1A
:1001F00090E00E9443076091FF0182E00E94560751
:1002000088E00E945606882331F088E00E9470063C
:10021000809301022BC08CE00E945606882331F0A7
:100220008CE00E9470068093010220C08DE00E9445
:100230005606882331F08DE00E94700680930102FB
:1002400015C08EE00E945606882331F08EE00E9491
:100250007006809301020AC08FE00E945606882330
:1002600029F08FE00E9470068093010280910102C4
:100270000E94FB0620916100222351F0E091FF01D2
:10028000F0910002E959FF4F80910102808309C07B
:10029000E091FF01F0910002EE59FF4F80910102C1
:1002A00080838091FF01909100020196909300025B
:1002B0008093FF010497B9F42130A9F410926100F2
:1002C000109200021092FF010EC00E94670789EE93
:1002D00090E00E94430760E082E00E94560788EFAA
:1002E00090E00E94430780E090E021C025E0289F35
:1002F000F001299FF00D1124E459FF4F3081209126
:100300006700321311C025E0289FF001299FF00DEE
:100310001124EA5DFD4F308120916200321304C048
:1003200021E02093FC0102C01092FC010196833071
:100330009105E4F28091FC01813009F013CF8091A6
:10034000FB01813009F00ECF0E94670785E091E044
:100350000E94430760E082E00E94560782E191E03C
:100360000E94430788E00E945606882381F10E947C
:10037000670788E00E9456068111F4CE8CE00E9447
:1003800056068111EFCE8DE00E9456068111EACE0D
:100390008EE00E9456068111E5CE8FE00E9456063F
:1003A0008111E0CE83E291E00E9443078CE690E069
:1003B0000E94430760E080E00E94560789E291E0D6
:1003C0000E94430786E292E00E944307D2CF8CE06E
:1003D0000E945606882309F4C5CE88E00E9456067E
:1003E0008111C0CE88E00E945606882321F080E16A
:1003F0000E946E07F2CF88E00E945606882321F003
:1004000081E10E946E07E9CF88E00E9456068823AA
:1004100021F082E10E946E07E0CF88E00E9456063C
:100420008823D9F283E10E946E07D7CF0E94670725
:100430008CEC90E00E94430762E082E00E94560745
:1004400084ED90E00E94430780E090E0DF91CF913F
:100450001F910F91FF90EF9008951F920F920FB68A
:100460000F9211242F933F934F935F936F937F933A
:100470008F939F93AF93BF93EF93FF938091050268
:10048000853011F4109205028091030290910402CC
:10049000853091054CF4E0910502F0E0E95EFD4FF6
:1004A00080810E9428063FC08A3091054CF4E0917B
:1004B0000502F0E0EA5DFD4F80810E94280633C00E
:1004C0008F3091054CF4E0910502F0E0E95EFD4FBC
:1004D00085810E94280627C0843191054CF4E09163
:1004E0000502F0E0EA5DFD4F85810E9428061BC0F1
:1004F000893191054CF4E0910502F0E0E95EFD4F91
:1005000082850E9428060FC04E974CF4E0910502A8
:10051000F0E0EA5DFD4F82850E94280604C010923B
:10052000040210920302809105028F5F80930502FE
:1005300080910302909104020196909304028093AB
:100540000302FF91EF91BF91AF919F918F917F91A6
:100550006F915F914F913F912F910F900FBE0F9030
:100560001F9018951F920F920FB60F9211242F9380
:100570003F934F935F936F937F938F939F93AF932B
:10058000BF93CF93DF93EF93FF930E942B06C82F67
:100590008A34B9F40E942E060E9467078CEC90E022
:1005A0000E94430762E082E00E94560784ED90E0DB
:1005B0000E94430710921602109215021092140224
:1005C000C4C2813509F4C1C280911602811105C0EF
:1005D0008C2F0E9455008093160280911502811184
:1005E00005C08C2F0E94490080931502809114024F
:1005F000811105C08C2F0E944F00809314028091BE
:100600001602882381F110920502109204021092C2
:1006100003020E9467078EE291E00E94430781E493
:100620000E942806E0E1F2E0108211821282EDE0E1
:10063000F2E0108211821282EAE0F2E0108211826E
:100640001282109215021092140210921602109249
:1006500013021092090210920802109207021092DF
:10066000FE011092FD0180911502882309F41AC23F
:100670000E94670788E391E00E944307C53421F494
:1006800081E0809313021EC0C43421F481E0809382
:10069000080218C0CC3421F481E08093090212C012
:1006A000C83481F461E082E00E94560783E491E05F
:1006B0000E9443071092130210920902109208023E
:1006C0001092150280911302882309F488C161E019
:1006D00082E00E9456078EE491E00E9443078C2F2F
:1006E0000E945B0080930702909110029130F9F410
:1006F00080910602853070F46C2F90E00E94AF0963
:1007000080910602E82FF0E0E95EFD4FC0838F5F25
:100710008093060280910602853009F016C210927D
:10072000100281E080930A02109206020EC290919C
:100730001102913001F580910602853078F490E045
:100740006C2F0A960E94AF0980910602E82FF0E014
:10075000E95EFD4FC5838F5F80930602809106029C
:10076000853009F0F2C11092110281E080930B02F2
:1007700010920602EAC190911202913001F5809127
:100780000602853078F490E06C2F44960E94AF0901
:1007900080910602E82FF0E0E95EFD4FC2878F5F8F
:1007A0008093060280910602853009F0CEC1109236
:1007B000120281E080930C0210920602C6C1909151
:1007C0000A029130E9F480910602853078F490E0D5
:1007D0006C2F05960E94AF0980910602E82FF0E089
:1007E000EA5DFD4FC0838F5F809306028091060211
:1007F000853009F0AAC110920A0210920602A5C122
:1008000090910B029130E9F480910602853078F4E2
:1008100090E06C2F0F960E94AF0980910602E82F9E
:10082000F0E0EA5DFD4FC5838F5F80930602809103
:100830000602853009F089C110920B02109206025F
:1008400084C190910C029130E9F4809106028530C8
:1008500078F490E06C2F49960E94AF0980910602CF
:10086000E82FF0E0EA5DFD4FC2878F5F80930602BC
:1008700080910602853009F068C110920C02109236
:10088000060263C18823D9F08091FB01882359F0C7
:1008900060E082E00E9456078CE591E00E944307E9
:1008A0001092FB0152C161E082E00E9456078CE683
:1008B00091E00E94430781E08093FB0146C1C3326F
:1008C00019F41092130241C1C034E1F028F4C5328A
:1008D000A9F0CA32D9F01DC0CF3441F0C03551F073
:1008E000C934B9F481E08093100213C081E0809391
:1008F00011020FC081E0809312020BC081E080934F
:100900000D0207C081E080930E0203C081E0809356
:100910000F0280910D028130E9F406C06DE2CE0134
:100920000E94AF09219602C0C0E0D0E0CA30D105D4
:10093000ACF380E090E00AC0FC01E95EFD4F2DE2DF
:100940002083FC01EA5DFD4F2083019685309105EF
:100950009CF3FBC080910E028130F1F407C06DE280
:10096000CE010A960E94AF09219602C0C0E0D0E0F5
:10097000CA30D105A4F380E090E00AC0FC01E95E32
:10098000FD4F2DE22583FC01EA5DFD4F2583019695
:10099000853091059CF3D9C080910F02813009F018
:1009A000D4C007C06DE2CE0144960E94AF092196E3
:1009B00002C0C0E0D0E0CA30D105A4F380E090E0EE
:1009C0000AC0FC01E95EFD4F2DE22287FC01EA5DD1
:1009D000FD4F22870196853091059CF3B6C080912A
:1009E0000802882321F161E082E00E945607C634A4
:1009F00059F40E943A0661E082E00E9456078BE7B4
:100A000091E00E944307A1C0C73459F40E944806F0
:100A100061E082E00E94560787E891E00E94430768
:100A200094C0C73509F091C0109208028EC0809121
:100A30000902882309F489C0CA3561F461E082E0C3
:100A40000E94560783E991E00E94430781E080936A
:100A5000FE0115C0C83559F461E082E00E945607D6
:100A60008BE991E00E9443071092FE0108C0C13259
:100A700019F41092090203C08C2F0E946E07809116
:100A8000FE01882309F461C061E082E00E945607FC
:100A900083E991E00E9443078C2F0E940B0680930C
:100AA000020253C080911402882309F44EC00E94B0
:100AB000670784EA91E00E944307CC3421F481E087
:100AC000809309020EC0C83461F461E082E00E94A4
:100AD000560783E491E00E944307109209021092A6
:100AE0001402CA3561F461E082E00E94560783E98E
:100AF00091E00E94430781E08093FE0115C0C83554
:100B000059F461E082E00E9456078BE991E00E946F
:100B100043071092FE0108C0C13219F41092090275
:100B200003C08C2F0E946E078091FE01882369F01C
:100B300061E082E00E94560783E991E00E9443074A
:100B40008C2F0E940B0680930202FF91EF91DF91A0
:100B5000CF91BF91AF919F918F917F916F915F9155
:100B60004F913F912F910F900FBE0F901F901895AE
:100B70001F920F920FB60F9211242F933F934F9312
:100B80005F936F937F938F939F93AF93BF93EF93F5
:100B9000FF938091FE01882371F0809102020E94F0
:100BA00010060E9401068FE39CE90197F1F700C04F
:100BB00000000E940606FF91EF91BF91AF919F91B7
:100BC0008F917F916F915F914F913F912F910F90F6
:100BD0000FBE0F901F90189560E08AE10E94EC070D
:100BE00060E085E10E94EC070E94090A80E00E9413
:100BF000C40980E00E94D60960E080E00E94E80914
:100C0000089561E085E10E94EC07089560E085E1C8
:100C10000E94EC0708952BE4829FC00111240895DF
:100C200007C0EFE9FFE03197F1F700C00000815005
:100C30008111F7CF089561E082E00E94EC070895EA
:100C400060E082E00E94EC0708950E941A0A08956D
:100C50000E94220A08950E94240A089561E083E018
:100C60000E94EC0708950E940D0A87E893E10E9414
:100C7000140A089582E390E00E94170A2FEF8DE393
:100C800099E4215080409040E1F700C000000895B1
:100C90008CEB92E00E94170A2FEF8DE399E421502C
:100CA00080409040E1F700C000000895CF93C82F26
:100CB0000E94AF08813079F42FEF80E792E0215055
:100CC00080409040E1F700C000008C2F0E94AF08E8
:100CD000813019F403C080E001C080E0CF91089515
:100CE0008D3069F028F4883041F08C3081F00DC0EF
:100CF0008E3039F08F3039F008C085E7089585E6E9
:100D0000089582E7089581E6089581E4089583E7D0
:100D10000895CF93C82F60E089E00E94EC0780E03F
:100D20000E94E7088F709C2F907F682F692B80E0CE
:100D30000E94F90860E08BE00E94EC078FE891E0E8
:100D40000197F1F700C0000061E08BE00E94EC0722
:100D50008FE19EE40197F1F700C0000080E00E945F
:100D6000E70890E1C99F900111248F70682F622BD2
:100D700080E00E94F90860E08BE00E94EC078FE8B9
:100D800091E00197F1F700C0000061E08BE00E9464
:100D9000EC078FE39FE10197F1F700C00000CF91CE
:100DA000089560E08AE00E94EC0761E08BE00E9419
:100DB000EC072FEF89EF90E0215080409040E1F761
:100DC00000C0000083E30E9489068FE891E001974C
:100DD000F1F700C0000082E30E94890688E20E94C9
:100DE000890686E00E9489068FE00E94890681E0DC
:100DF0000E9489060895CF93C82F61E089E00E9480
:100E0000EC0780E00E94E7088F709C2F907F682F8E
:100E1000692B80E00E94F90860E08BE00E94EC07FB
:100E20008FE891E00197F1F700C0000061E08BE0EE
:100E30000E94EC078FE19EE40197F1F700C00000EB
:100E400080E00E94E70890E1C99F900111248F7013
:100E5000682F622B80E00E94F90860E08BE00E941E
:100E6000EC078FE891E00197F1F700C0000061E026
:100E70008BE00E94EC078FE39FE10197F1F700C040
:100E80000000CF9108950F931F93CF938C01C0E082
:100E900003C00E94FB06CF5FF801EC0FF11D8081BB
:100EA0008111F7CFCF911F910F910895813019F0E3
:100EB000823039F00895862F8F7080680E948906ED
:100EC0000895862F8F70806C0E948906089581E0B6
:100ED0000E94890608950E946E0808958D34D9F104
:100EE00028F4823401F1833431F008958E3439F1DD
:100EF000863569F0089580E10E946B0761E082E029
:100F00000E9456078EEA91E00E944307089581E10E
:100F10000E946B0761E082E00E9456078DEB91E032
:100F20000E944307089582E10E946B0761E082E01E
:100F30000E9456078CEC91E00E944307089583E1DC
:100F40000E946B0761E082E00E9456078BED91E002
:100F50000E944307089584E10E946B0761E082E0EC
:100F60000E9456078AEE91E00E94430708950E946E
:100F7000C40708950E94DA0799230CF40396959507
:100F8000879595958795089587B1806487B987B1CE
:100F9000806887B987B18F7D87B986B1806886B947
:100FA00086B1816086B986B1826086B986B1846077
:100FB00086B9089597B1907E8F71892B87B986B1D4
:100FC000806486B986B1806186B924B185B190E02C
:100FD000982F8827822B0895982F96959695969509
:100FE0008770913021F130F09230F1F1933009F4B3
:100FF00058C00895613069F44BB321E030E0B90185
:1010000002C0660F771F8A95E2F7CB01842B8BBB5A
:1010100008954BB321E030E0B90102C0660F771F9D
:101020008A95E2F7CB01809584238BBB08956130CC
:1010300069F448B321E030E0B90102C0660F771FC0
:101040008A95E2F7CB01842B88BB089548B321E051
:1010500030E0B90102C0660F771F8A95E2F7CB0135
:101060008095842388BB0895613069F445B321E0FD
:1010700030E0B90102C0660F771F8A95E2F7CB0115
:10108000842B85BB089545B321E030E0B90102C04F
:10109000660F771F8A95E2F7CB018095842385BB85
:1010A0000895613069F442B321E030E0B90102C033
:1010B000660F771F8A95E2F7CB01842B82BB0895D8
:1010C00042B321E030E0B90102C0660F771F8A9574
:1010D000E2F7CB018095842382BB0895982F9695E3
:1010E000969596958770913099F028F09230E9F0B6
:1010F000933041F108954BB321E030E0B90102C0D3
:10110000660F771F8A95E2F7CB0184278BBB089582
:1011100048B321E030E0B90102C0660F771F8A951D
:10112000E2F7CB01842788BB089545B321E030E086
:10113000B90102C0660F771F8A95E2F7CB018427B9
:1011400085BB089542B321E030E0B90102C0660FCB
:10115000771F8A95E2F7CB01842782BB0895982FE9
:10116000969596959695482F4770913081F028F086
:101170009230B9F09330F9F028C099B3892F90E0FC
:1011800002C0959587954A95E2F78170089526B338
:1011900030E0C90102C0959587954A95E2F78170C4
:1011A000089523B330E0C90102C0959587954A950B
:1011B000E2F78170089520B330E0C90102C095952F
:1011C00087954A95E2F78170089580E0089581300F
:1011D00041F028F0823039F0833039F008C08BB309
:1011E000089588B3089585B3089582B3089580E083
:1011F0000895813041F028F0823039F0833039F0A1
:1012000008956BBB089568BB089565BB089562BBE4
:10121000089580E0A0C0982F969596959695282FD2
:101220002770913061F138F0923009F44CC093305E
:1012300009F46DC08FC0E82FF0E0EE0FFF1FE558F6
:10124000FF4F9081913069F49AB341E050E0BA01C8
:1012500002C0660F771F2A95E2F79B01292B2ABB54
:1012600079C09AB341E050E0BA0102C0660F771F1F
:101270002A95E2F79B01209529232ABB6BC0E82F12
:10128000F0E0EE0FFF1FE558FF4F9081913069F4B9
:1012900097B341E050E0BA0102C0660F771F2A956C
:1012A000E2F79B01292B27BB55C097B341E050E0E3
:1012B000BA0102C0660F771F2A95E2F79B012095BD
:1012C000292327BB47C0E82FF0E0EE0FFF1FE558AA
:1012D000FF4F9081913069F494B341E050E0BA013E
:1012E00002C0660F771F2A95E2F79B01292B24BBCA
:1012F00031C094B341E050E0BA0102C0660F771FDD
:101300002A95E2F79B012095292324BB23C0E82FCF
:10131000F0E0EE0FFF1FE558FF4F9081913069F428
:1013200091B341E050E0BA0102C0660F771F2A95E1
:10133000E2F79B01292B21BB0DC091B341E050E0A6
:10134000BA0102C0660F771F2A95E2F79B0120952C
:10135000292321BB8F5F803208F45DCF0895E19986
:10136000FECF8EBB9FBB6DBB8CB384608CBB8CB33C
:1013700082608CBB0895E199FECF8EBB9FBB8CB37E
:1013800081608CBB8DB30895813041F018F08230BC
:1013900049F008958BB780648BBF08958BB7806840
:1013A0008BBF08958BB780628BBF0895813041F069
:1013B00018F0823049F008958BB78F7B8BBF08956A
:1013C0008BB78F778BBF08958BB78F7D8BBF0895B9
:1013D000813049F018F0823081F0089585B78C7F14
:1013E000682B65BF089585B770E0660F771F660F9D
:1013F000771F837F682B65BF0895633021F484B71E
:10140000806484BF0895623019F484B78F7B84BFF1
:1014100008958FB780688FBF08958FB5826A8FBD9A
:101420008EB58B618EBD089597BD86BD08959BBD19
:101430008ABD089588ED8AB986E880BD87E689B9B6
:1014400010BC08958CB908958CB10895F894FFCF1D
:101450000101616161616161616161617573657201
:101460003175736572327573657233000001010165
:10147000010101010101010101010100000101015E
:101480000101010000000000000000010101010154
:10149000010101010101010101010101010101013C
:1014A00001010101010101010101012A2A2A20573C
:1014B000656C636F6D652E202A2A2A00526573744D
:1014C000617274005265717569726564004B4559AB
:1014D000504144204D4F4445004B65797061642074
:1014E000436F6E74726F6C004E6F7420416C6C6F42
:1014F0007765642E00312D205553455220494E46C4
:101500004F00322D204C4947485420434F4E5452EF
:101510004F4C007573657220007061737300436FE8
:101520006E6E65637465640041444D494E204D4FB5
:101530004445005349474E4544204F5554005553A8
:10154000455220434F4E544F524C53004B45595037
:1015500041442044495341424C4544004B45595075
:10156000414420414C4C4F57454400444F4F452087
:101570004F50454E454400444F4F5220434C4F532B
:101580004544004C414D50204F4E004C414D5020A1
:101590004F46460055534552204D4F4445004C455B
:1015A00044203120544F4747454C4544004C454466
:1015B000203220544F4747454C4544004C45442079
:1015C0003320544F4747454C4544004C4544203454
:1015D00020544F4747454C4544004C454420352056
:0A15E000544F4747454C45440000B6
:00000001FF
